:020000040800F2
:1000000000000220F52C0008912B0008932B00081B
:10001000952B0008972B0008992B00080000000082
:100020000000000000000000000000009B2B000802
:100030009D2B0008000000009F2B0008A12B00084A
:10004000452D0008452D0008452D0008452D0008C8
:10005000452D0008452D0008452D0008452D0008B8
:10006000452D0008452D0008452D0008452D0008A8
:10007000452D0008452D0008452D0008452D000898
:10008000452D0008452D0008452D0008452D000888
:10009000452D0008452D0008452D0008452D000878
:1000A000452D0008452D0008452D0008452D000868
:1000B000452D0008452D0008452D0008452D000858
:1000C000452D0008452D0008452D0008452D000848
:1000D000452D0008452D0008452D0008452D000838
:1000E000452D0008452D0008452D0008452D000828
:1000F000452D0008452D0008452D0008452D000818
:10010000452D0008452D0008452D0008452D000807
:10011000452D0008452D0008452D0008452D0008F7
:10012000452D0008452D0008452D0008452D0008E7
:10013000452D0008452D0008452D0008452D0008D7
:10014000452D0008452D0008452D0008452D0008C7
:10015000452D0008452D0008452D0008452D0008B7
:10016000452D0008452D0008452D0008452D0008A7
:10017000452D0008452D0008452D00080000000011
:08018000452D0008452D000883
:1001C00010B5054C237833B9044B13B10448AFF391
:1001D00000800123237010BD0C0A002000000000E5
:1001E000AC02010808B5034B1BB103490348AFF348
:1001F000008008BD00000000100A0020AC020108C9
:1002000081F0004102E000BF83F0004330B54FEAC7
:1002100041044FEA430594EA050F08BF90EA020F34
:100220001FBF54EA000C55EA020C7FEA645C7FEAC7
:10023000655C00F0E2804FEA5454D4EB5555B8BFEA
:100240006D420CDD2C4480EA020281EA030382EA5B
:10025000000083EA010180EA020281EA0303362DED
:1002600088BF30BD11F0004F4FEA01314FF4801CC0
:100270004CEA113102D0404261EB410113F0004FD2
:100280004FEA03334CEA133302D0524263EB430389
:1002900094EA050F00F0A780A4F10104D5F1200E27
:1002A0000DDB02FA0EFC22FA05F2801841F1000182
:1002B00003FA0EF2801843FA05F359410EE0A5F156
:1002C00020050EF1200E012A03FA0EFC28BF4CF087
:1002D000020C43FA05F3C01851EBE37101F000453D
:1002E00007D54FF0000EDCF1000C7EEB00006EEB4A
:1002F0000101B1F5801F1BD3B1F5001F0CD34908D4
:100300005FEA30004FEA3C0C04F101044FEA44522A
:1003100012F5800F80F09A80BCF1004F08BF5FEAB1
:10032000500C50F1000041EB045141EA050130BD91
:100330005FEA4C0C404141EB0101013C28BFB1F5A3
:10034000801FE9D291F0000F04BF01460020B1FAEE
:1003500081F308BF2033A3F10B03B3F120020CDAC1
:100360000C3208DD02F1140CC2F10C0201FA0CF09F
:1003700021FA02F10CE002F11402D8BFC2F1200C04
:1003800001FA02F120FA0CFCDCBF41EA0C019040BA
:10039000E41AA2BF01EB0451294330BD6FEA040403
:1003A0001F3C1CDA0C340EDC04F11404C4F12002EE
:1003B00020FA04F001FA02F340EA030021FA04F300
:1003C00045EA030130BDC4F10C04C4F1200220FA57
:1003D00002F001FA04F340EA0300294630BD21FA95
:1003E00004F0294630BD94F0000F83F4801306BF5B
:1003F00081F480110134013D4EE77FEA645C18BF4F
:100400007FEA655C29D094EA050F08BF90EA020FE5
:1004100005D054EA000C04BF1946104630BD91EADD
:10042000030F1EBF0021002030BD5FEA545C05D1E0
:100430004000494128BF41F0004130BD14F580041F
:100440003CBF01F5801130BD01F0004545F0FE4193
:1004500041F470014FF0000030BD7FEA645C1ABFC8
:10046000194610467FEA655C1CBF0B46024650EAFF
:10047000013406BF52EA033591EA030F41F400212B
:1004800030BD00BF90F0000F04BF0021704730B5B1
:100490004FF4806404F132044FF000054FF0000186
:1004A00050E700BF90F0000F04BF0021704730B547
:1004B0004FF4806404F1320410F0004548BF40421C
:1004C0004FF000013EE700BF42004FEAE2014FEA71
:1004D00031014FEA02701FBF12F07F4393F07F4F4C
:1004E00081F06051704732F07F4208BF704793F04F
:1004F0007F4F04BF41F40021704730B54FF4607462
:1005000001F0004521F000411CE700BF50EA010264
:1005100008BF704730B54FF000050AE050EA01020D
:1005200008BF704730B511F0004502D5404261EB7D
:1005300041014FF4806404F132045FEA915C3FF4BE
:10054000D8AE4FF003025FEADC0C18BF03325FEA5B
:10055000DC0C18BF033202EBDC02C2F1200300FA0C
:1005600003FC20FA02F001FA03FE40EA0E0021FA31
:1005700002F11444BDE600BF70B54FF0FF0C4CF41F
:10058000E06C1CEA11541DBF1CEA135594EA0C0FD1
:1005900095EA0C0F00F0DEF82C4481EA030621EA0C
:1005A0004C5123EA4C5350EA013518BF52EA033547
:1005B00041F4801143F4801338D0A0FB02CE4FF0F9
:1005C0000005E1FB02E506F00042E0FB03E54FF029
:1005D0000006E1FB03569CF0000F18BF4EF0010E21
:1005E000A4F1FF04B6F5007F64F5407404D25FEA1D
:1005F0004E0E6D4146EB060642EAC62141EA5551D0
:100600004FEAC52040EA5E504FEACE2EB4F1FD0C11
:1006100088BFBCF5E06F1ED8BEF1004F08BF5FEA8F
:10062000500E50F1000041EB045170BD06F0004641
:1006300046EA010140EA020081EA0301B4EB5C04EE
:10064000C2BFD4EB0C0541EA045170BD41F48011E6
:100650004FF0000E013C00F3AB8014F1360FDEBF0B
:10066000002001F0004170BDC4F10004203C35DAE7
:100670000C341BDC04F11404C4F1200500FA05F36A
:1006800020FA04F001FA05F240EA020001F000420B
:1006900021F0004110EBD37021FA04F642EB060181
:1006A0005EEA430E08BF20EAD37070BDC4F10C04AB
:1006B000C4F1200500FA04F320FA05F001FA04F26F
:1006C00040EA020001F0004110EBD37041F100015B
:1006D0005EEA430E08BF20EAD37070BDC4F1200566
:1006E00000FA05F24EEA020E20FA04F301FA05F2CE
:1006F00043EA020321FA04F001F0004121FA04F276
:1007000020EA020000EBD3705EEA430E08BF20EA45
:10071000D37070BD94F0000F0FD101F0004640007F
:1007200041EB010111F4801F08BF013CF7D041EA01
:10073000060195F0000F18BF704703F00046520005
:1007400043EB030313F4801F08BF013DF7D043EAD6
:100750000603704794EA0C0F0CEA135518BF95EA8C
:100760000C0F0CD050EA410618BF52EA4306D1D113
:1007700081EA030101F000414FF0000070BD50EA32
:10078000410606BF1046194652EA430619D094EABC
:100790000C0F02D150EA013613D195EA0C0F05D1A6
:1007A00052EA03361CBF104619460AD181EA0301FA
:1007B00001F0004141F0FE4141F470014FF00000B2
:1007C00070BD41F0FE4141F4780170BD70B54FF04D
:1007D000FF0C4CF4E06C1CEA11541DBF1CEA1355CD
:1007E00094EA0C0F95EA0C0F00F0A7F8A4EB0504AF
:1007F00081EA030E52EA03354FEA013100F08880A6
:100800004FEA03334FF0805545EA131343EA12636E
:100810004FEA022245EA111545EA10654FEA002623
:100820000EF000419D4208BF964244F1FD0404F5DC
:10083000407402D25B084FEA3202B61A65EB030538
:100840005B084FEA32024FF480104FF4002CB6EBF5
:10085000020E75EB030E22BFB61A754640EA0C0075
:100860005B084FEA3202B6EB020E75EB030E22BFB5
:10087000B61A754640EA5C005B084FEA3202B6EBF6
:10088000020E75EB030E22BFB61A754640EA9C00B5
:100890005B084FEA3202B6EB020E75EB030E22BF85
:1008A000B61A754640EADC0055EA060E18D04FEA43
:1008B000051545EA16754FEA06164FEAC30343EAE3
:1008C00052734FEAC2025FEA1C1CC0D111F4801FB0
:1008D0000BD141EA00014FF000004FF0004CB6E7A9
:1008E00011F4801F04BF01430020B4F1FD0C88BF48
:1008F000BCF5E06F3FF6AFAEB5EB030C04BFB6EB53
:10090000020C5FEA500C50F1000041EB045170BD45
:100910000EF0004E4EEA113114EB5C04C2BFD4EB72
:100920000C0541EA045170BD41F480114FF0000EF6
:10093000013C90E645EA060E8DE60CEA135594EA72
:100940000C0F08BF95EA0C0F3FF43BAF94EA0C0F75
:100950000AD150EA01347FF434AF95EA0C0F7FF4EA
:1009600025AF104619462CE795EA0C0F06D152EA3E
:1009700003353FF4FDAE1046194622E750EA410622
:1009800018BF52EA43067FF4C5AE50EA41047FF433
:100990000DAF52EA43057FF4EBAE12E74FF0FF3C98
:1009A00006E000BF4FF0010C02E000BF4FF0010C69
:1009B0004DF804CD4FEA410C7FEA6C5C4FEA430CE2
:1009C00018BF7FEA6C5C1BD001B050EA410C0CBF31
:1009D00052EA430C91EA030F02BF90EA020F002093
:1009E000704710F1000F91EA030F58BF994208BFFA
:1009F00090422CBFD8176FEAE37040F001007047B7
:100A00004FEA410C7FEA6C5C02D150EA013C07D10D
:100A10004FEA430C7FEA6C5CD6D152EA033CD3D058
:100A20005DF8040B704700BF8446104662468C4652
:100A30001946634600E000BF01B5FFF7B7FF002885
:100A400048BF10F1000F01BD4DF808EDFFF7F4FFAE
:100A50000CBF012000205DF808FB00BF4DF808ED39
:100A6000FFF7EAFF34BF012000205DF808FB00BF5C
:100A70004DF808EDFFF7E0FF94BF012000205DF87E
:100A800008FB00BF4DF808EDFFF7CEFF94BF012033
:100A900000205DF808FB00BF4DF808EDFFF7C4FF2C
:100AA00034BF012000205DF808FB00BF4A0011D2CE
:100AB00012F5001211D20DD56FF47873B3EB6252B8
:100AC0000ED44FEAC12343F0004343EA505323FAC4
:100AD00002F070474FF00000704750EA013002D139
:100AE0004FF0FF3070474FF0000070474FEA41026F
:100AF000B2F1E04324BFB3F5001CDCF1FE5C0DD97C
:100B000001F0004C4FEAC0024CEA5070B2F1004FC5
:100B100040EB830008BF20F00100704711F0804FC8
:100B200021D113F13872BCBF01F00040704741F48D
:100B300080114FEA5252C2F11802C2F1200C10FA91
:100B40000CF320FA02F018BF40F001004FEAC12375
:100B50004FEAD32303FA0CFC40EA0C0023FA02F319
:100B60004FEA4303CCE77FEA625307D150EA0133EF
:100B70001EBF4FF0FE4040F44000704701F00040BF
:100B800040F0FE4040F40000704700BF80F000409D
:100B900002E000BF81F0004142001FBF5FEA410355
:100BA00092EA030F7FEA226C7FEA236C6AD04FEA55
:100BB0001262D2EB1363C1BFD2184140484041409A
:100BC000B8BF5B42192B88BF704710F0004F40F44C
:100BD000000020F07F4018BF404211F0004F41F468
:100BE000000121F07F4118BF494292EA030F3FD034
:100BF000A2F1010241FA03FC10EB0C00C3F1200347
:100C000001FA03F100F0004302D5494260EB4000D5
:100C1000B0F5000F13D3B0F1807F06D340084FEA40
:100C2000310102F10102FE2A51D2B1F1004F40EB35
:100C3000C25008BF20F0010040EA0300704749009D
:100C400040EB0000013A28BFB0F5000FEDD2B0FA3A
:100C500080FCACF1080CB2EB0C0200FA0CF0AABF5D
:100C600000EBC25052421843BCBFD04018437047FB
:100C700092F0000F81F4000106BF80F40000013201
:100C8000013BB5E74FEA41037FEA226C18BF7FEAD8
:100C9000236C21D092EA030F04D092F0000F08BF1A
:100CA0000846704790EA010F1CBF0020704712F001
:100CB0007F4F04D1400028BF40F00040704712F140
:100CC00000723CBF00F50000704700F0004343F0A5
:100CD000FE4040F4000070477FEA226216BF0846DB
:100CE0007FEA23630146420206BF5FEA412390EA9E
:100CF000010F40F4800070474FF0000304E000BF94
:100D000010F0004348BF40425FEA000C08BF704744
:100D100043F0964301464FF000001CE050EA010208
:100D200008BF70474FF000030AE000BF50EA01021D
:100D300008BF704711F0004302D5404261EB41010A
:100D40005FEA010C02BF84460146002043F0B6432F
:100D500008BFA3F18053A3F50003BCFA8CF2083A54
:100D6000A3EBC25310DB01FA02FC634400FA02FC5D
:100D7000C2F12002BCF1004F20FA02F243EB020064
:100D800008BF20F00100704702F1200201FA02FCC6
:100D9000C2F1200250EA4C0021FA02F243EB0200B9
:100DA00008BF20EADC7070474FF0FF0C1CEAD052FD
:100DB0001EBF1CEAD15392EA0C0F93EA0C0F6FD0BE
:100DC0001A4480EA010C400218BF5FEA41211ED09C
:100DD0004FF0006343EA501043EA5111A0FB013188
:100DE0000CF00040B1F5000F3EBF490041EAD3715D
:100DF0005B0040EA010062F17F02FD2A1DD8B3F1D9
:100E0000004F40EBC25008BF20F00100704790F047
:100E1000000F0CF0004C08BF49024CEA502040EA99
:100E200051207F3AC2BFD2F1FF0340EAC25070475F
:100E300040F400004FF00003013A5DDC12F1190F9D
:100E4000DCBF00F000407047C2F10002410021FA0F
:100E500002F1C2F1200200FA02FC5FEA310040F127
:100E6000000053EA4C0308BF20EADC70704792F0A0
:100E7000000F00F0004C02BF400010F4000F013AD8
:100E8000F9D040EA0C0093F0000F01F0004C02BFD3
:100E9000490011F4000F013BF9D041EA0C018FE742
:100EA0000CEAD15392EA0C0F18BF93EA0C0F0AD048
:100EB00030F0004C18BF31F0004CD8D180EA01006E
:100EC00000F00040704790F0000F17BF90F0004F07
:100ED000084691F0000F91F0004F14D092EA0C0FE9
:100EE00001D142020FD193EA0C0F03D14B0218BF7C
:100EF000084608D180EA010000F0004040F0FE40C2
:100F000040F40000704740F0FE4040F4400070475D
:100F10004FF0FF0C1CEAD0521EBF1CEAD15392EADC
:100F20000C0F93EA0C0F69D0A2EB030280EA010CCC
:100F300049024FEA402037D04FF0805343EA111165
:100F400043EA10130CF000408B4238BF5B0042F1C3
:100F50007D024FF4000C8B4224BF5B1A40EA0C0068
:100F6000B3EB510F24BFA3EB510340EA5C00B3EB9A
:100F7000910F24BFA3EB910340EA9C00B3EBD10F88
:100F800024BFA3EBD10340EADC001B0118BF5FEADA
:100F90001C1CE0D1FD2A3FF650AF8B4240EBC25003
:100FA00008BF20F0010070470CF0004C4CEA5020C4
:100FB0007F32C2BFD2F1FF0340EAC250704740F413
:100FC00000004FF00003013A37E792F0000F00F005
:100FD000004C02BF400010F4000F013AF9D040EA83
:100FE0000C0093F0000F01F0004C02BF490011F417
:100FF000000F013BF9D041EA0C0195E70CEAD1530F
:1010000092EA0C0F08D142027FF47DAF93EA0C0FF5
:101010007FF470AF084676E793EA0C0F04D14B02D9
:101020003FF44CAF08466EE730F0004C18BF31F08B
:10103000004CCAD130F000427FF45CAF31F0004385
:101040007FF43CAF5FE700BF42000ED2B2F1FE4F2B
:101050000BD34FF09E03B3EB126209D44FEA002387
:1010600043F0004323FA02F070474FF0000070474E
:1010700012F1610F01D1420202D14FF0FF307047EF
:101080004FF00000704700BF53B94AB9002908BFAC
:1010900000281CBF4FF0FF314FF0FF3000F074B953
:1010A000ADF1080C6DE904CE00F006F8DDF804E0BF
:1010B000DDE9022304B070472DE9F047089E0D4694
:1010C00004468846002B4DD18A42944668D9B2FA2C
:1010D00082F252B101FA02F3C2F1200120FA01F1C9
:1010E0000CFA02FC41EA030894404FEA1C45210C2B
:1010F000B8FBF5FE1FFA8CF705FB1E8341EA03439C
:101100000EFB07F199420BD91CEB03030EF1FF30E4
:1011100080F01E81994240F21B81AEF1020E6344C1
:101120005B1AA4B2B3FBF5F005FB103344EA0344A9
:1011300000FB07F7A7420AD91CEB040400F1FF33B8
:1011400080F00881A74240F2058164440238E41B24
:1011500040EA0E4000211EB1D4400023C6E90043FE
:10116000BDE8F0878B4208D9002E00F0EE80002108
:10117000C6E900050846BDE8F087B3FA83F1002907
:101180004AD1AB4202D3824200F2F980841A65EB65
:10119000030301209846002EE2D0C6E90048DFE7AD
:1011A00002B9FFDEB2FA82F2002A40F09180A1EB90
:1011B0000C054FEA1C471FFA8CFE0121B5FBF7F323
:1011C00007FB1350250C45EA00450EFB03F0A8422F
:1011D00008D91CEB050503F1FF3802D2A84200F242
:1011E000CB8043462D1AA4B2B5FBF7F007FB105590
:1011F00044EA05440EFB00FEA64508D91CEB040496
:1012000000F1FF3502D2A64500F2BB802846A4EBD0
:101210000E0440EA03409EE7C1F120078B4022FA0A
:1012200007FC4CEA030C20FA07F405FA01F31C430F
:10123000FD404FEA1C4900FA01F3B5FBF9F8200C18
:101240001FFA8CFE09FB185540EA054508FB0EF015
:10125000A84202FA01F20BD91CEB050508F1FF3A8E
:1012600080F08880A84240F28580A8F10208654499
:101270002D1AA4B2B5FBF9F009FB105544EA054557
:1012800000FB0EFEAE4508D91CEB050500F1FF344E
:101290006CD2AE456AD90238654440EA0840A0FBEA
:1012A0000294A5EB0E05A542C846A64656D353D0D8
:1012B0005EB1B3EB080265EB0E0505FA07F722FAFB
:1012C00001F3CD401F43C6E900750021BDE8F0875A
:1012D000C2F1200320FA03F10CFA02FC25FA03F311
:1012E00095400D434FEA1C471FFA8CFEB3FBF7F104
:1012F00007FB11302B0C43EA004301FB0EF0984230
:1013000004FA02F408D91CEB030301F1FF382FD2D1
:1013100098422DD9023963441B1AADB2B3FBF7F0E2
:1013200007FB103345EA034500FB0EF3AB4208D937
:101330001CEB050500F1FF3816D2AB4214D9023878
:101340006544ED1A40EA014138E73146304607E787
:101350008646E5E61846FAE64B45A9D2B9EB0208FF
:1013600064EB0C0E0138A3E74046EAE7204694E719
:101370004146D1E7D0467BE7023B654432E7084669
:1013800009E76444023842E7704700BF00000000EC
:10139000000000000000000000000000000000004D
:1013A000A2EB0300704700BF02780B78012A28BF28
:1013B0009A42F5D16DE9044540EA0104CDE902679E
:1013C0006FF0000C4FEA447212B380EA010414F08B
:1013D000070F6AD100F0070420F0070004F00305AE
:1013E00021F007014FEAC505F0E8042314F0040FCB
:1013F000F1E804670CFA05F462EA040266EA0406FE
:101400000AD063EA0403624667EA0407664603E01B
:10141000F0E80423F1E8046782FA4CF582EA060456
:10142000A4FA8CF46CBB83FA4CF583EA0705A5FAA1
:101430008CF595B950E9022351E9026782FA4CF51F
:1014400082EA0604A4FA8CF483FA4CF583EA0705D1
:10145000A5FA8CF52543DBD09CB92DBAB5FA85F4F5
:1014600024F0070427FA04F1DDE9026723FA04F304
:1014700003F0FF0001F0FF01FDE80445A0EB0100CF
:10148000704724BAB4FA84F424F0070426FA04F16D
:10149000DDE9026722FA04F202F0FF0001F0FF0129
:1014A000FDE80445A0EB0100704714F0030F3CD1A8
:1014B00010F0030428D150F8082B51F8083B82FAA9
:1014C0004CF582EA0305A5FA8CF55DB950F8042CB9
:1014D00051F8043C82FA4CF582EA0305A5FA8CF532
:1014E000002DE8D02DBAB5FA85F424F0070423FACC
:1014F00004F122FA04F202F0FF0001F0FF01FDE81E
:101500000445A0EB010070474FEAC40420F003003B
:1015100050F8082B21F0030151F8083B0CFA04F4B1
:1015200062EA040263EA0403C9E710F003041AD074
:10153000A1EB040120F00300E40750F8042B06D0CF
:101540000FD28B785FFAA2F4E41A06D12BB1CB78D4
:101550005FFAB2F4E41A00D11BB920465DF8104BD3
:10156000704701F1040150F8042BCC0721F003016E
:1015700051F8043B48D824D222F07F4482FA4CF53B
:1015800094EA1325A5FA8CF50AD165B951F8043B04
:1015900084EA0204B4EB036F0ED150F8042BEBE79E
:1015A0004FEA132355E035F07F454DD10878FDE82B
:1015B0000445C0F1000070474FEA126203F0FF03D8
:1015C00047E002EA1C4482FA4CF594EA1345A5FA76
:1015D0008CF50AD165B951F8043B84EA0204B4EBF6
:1015E000034F0CD150F8042BEBE74FEA134330E0E4
:1015F00015EA1C4528D10B884FEA124229E04FEA30
:10160000124203EA1C4324E002F0FF0482FA4CF584
:1016100094EA1365A5FA8CF50AD165B951F8043B33
:1016200084EA0204B4EB032F09D150F8042BEBE752
:101630004FEA13630DE015F0FF0F05D10B684FEA79
:10164000122223F07F4304E04FF00000FDE8044540
:10165000704712BA1BBA82FA4CF482EA0304A4FA65
:101660008CF5B5FA85F402FA04F203FA04F34FEAB2
:101670001260FDE80445A0EB136070470000000015
:1016800001F0FF01102A2BDB10F0070F08D010F833
:10169000013B013A8B422DD010F0070F42B3F6D137
:1016A000F0B441EA012141EA014122F007047FF050
:1016B00000070023F0E80256083C85EA010586EAA7
:1016C000010685FA47F5A3FA87F586FA47F6A5FAE3
:1016D00087F68EB9EED1F0BC01F0FF0102F00702EF
:1016E00032B110F8013B013A83EA010313B1F8D19A
:1016F0000020704701387047002D06BF354603387B
:10170000073815F0010F07D1013015F4807F02BFB3
:10171000013015F4C03F0130F0BC0138704700BF04
:10172000844641EA000313F003036DD1403A41D3EC
:1017300051F8043B40F8043B51F8043B40F8043BAB
:1017400051F8043B40F8043B51F8043B40F8043B9B
:1017500051F8043B40F8043B51F8043B40F8043B8B
:1017600051F8043B40F8043B51F8043B40F8043B7B
:1017700051F8043B40F8043B51F8043B40F8043B6B
:1017800051F8043B40F8043B51F8043B40F8043B5B
:1017900051F8043B40F8043B51F8043B40F8043B4B
:1017A00051F8043B40F8043B51F8043B40F8043B3B
:1017B000403ABDD2303211D351F8043B40F8043BDB
:1017C00051F8043B40F8043B51F8043B40F8043B1B
:1017D00051F8043B40F8043B103AEDD20C3205D3EB
:1017E00051F8043B40F8043B043AF9D2043208D0E3
:1017F000D2071CBF11F8013B00F8013B01D30B8855
:1018000003806046704700BF082A13D38B078DD032
:1018100010F003038AD0C3F10403D21ADB071CBF04
:1018200011F8013B00F8013B80D331F8023B20F86E
:10183000023B7BE7043AD9D3013A11F8013B00F8A7
:10184000013BF9D20B7803704B7843708B7883702F
:10185000604670470000000000000000000000002B
:101860000000000000000000000000000000000078
:101870000000000000000000000000000000000068
:1018800090F800F06DE9024520F007016FF0000CC0
:1018900010F0070491F820F040F049804FF0000468
:1018A0006FF00700D1E9002391F840F000F1080043
:1018B00082FA4CF2A4FA8CF283FA4CF3A2FA8CF37B
:1018C0004BBBD1E9022382FA4CF200F10800A4FAE2
:1018D0008CF283FA4CF3A2FA8CF3E3B9D1E9042336
:1018E00082FA4CF200F10800A4FA8CF283FA4CF36D
:1018F000A2FA8CF37BB9D1E9062301F1200182FA27
:101900004CF200F10800A4FA8CF283FA4CF3A2FA2C
:101910008CF3002BC6D0002A04BF04301A4612BA3A
:10192000B2FA82F2FDE8024500EBD2007047D1E93D
:10193000002304F00305C4F100004FEAC50514F0CC
:10194000040F91F840F00CFA05F562EA05021CBF9D
:1019500063EA050362464FF00004A9E74FEA410C31
:101960007FEA6C5C02D150EA013C0AD14FEA430C99
:101970007FEA6C5C02D152EA033C02D14FF00000D6
:1019800070474FF0010070474FEA410212F5001214
:1019900015D211D56FF47873B3EB625212D94FEAB6
:1019A000C12343F0004343EA505311F0004F23FAA0
:1019B00002F018BF404270474FF00000704750EAF5
:1019C000013005D111F0004008BF6FF000407047B2
:1019D0004FF00000704700BF38B505460C4628465A
:1019E000214600220023FFF739F828B9284621466E
:1019F000BDE8384000F00AB8284604F1004100F084
:101A000005F8404261EB410138BD00BFD0B50C4B39
:101A1000002206460F46FEF7AFFDFFF747F80446E3
:101A2000FEF730FD074B0022FEF7A6FD02460B46EF
:101A300030463946FEF7E8FBFFF738F82146D0BDBF
:101A40000000F03D0000F04100B585B00023009398
:101A50000193029303931548154A02604FF48032B4
:101A6000426083600361037680F82030C362114ACC
:101A70008262C3600122C26180F83030426101F0AD
:101A800063FA68B9062300930123019300230293AC
:101A90006946064801F086FB28B905B05DF804FBED
:101AA00000F0E6FFEEE700F0E3FFF6E7280A00208B
:101AB000002001400100000F00B589B0002303930E
:101AC0000493059306930793026803F1804303F59B
:101AD00090339A4202D009B05DF804FB00210191D5
:101AE00003F58C335A6C42F480725A645A6C02F4D7
:101AF00080720192019A02911A6B42F001021A63FC
:101B00001B6B03F001030293029B40230393032307
:101B1000049303A9014801F0F5FCDCE70000024052
:101B200000B583B00023009301930C480C4B036075
:101B300001F062FC60B93C23009302230193002270
:101B40006946064801F0B3FC28B903B05DF804FB10
:101B500000F08EFFEFE700F08BFFF6E7700A002041
:101B60000074004000B589B00023039304930593EB
:101B7000069307930268134B9A4202D009B05DF8AE
:101B800004FB0021019103F5E2331A6C42F000528C
:101B90001A641A6C02F000520192019A02911A6BB7
:101BA00042F001021A631B6B03F001030293029BD4
:101BB000102303930323049303A9034801F0A2FC19
:101BC000DCE700BF00740040000002402DE9F04156
:101BD00086B0002301930293039304930593224B51
:101BE0001B6813B106B0BDE8F0811F4B01221A60DB
:101BF000002600961D4B9A6B42F001029A639B6B84
:101C000003F001030093009B4FF48058CDF804804B
:101C100002270297032504950C24059401A9144872
:101C200001F070FC4FF680730193029703960495C0
:101C3000059401A90F4801F065FC4CF23373019340
:101C4000029703960495059401A90B4801F05AFCEC
:101C5000CDF80480029703960495059401A90748DE
:101C600001F050FCBEE700BF840A002000380240AB
:101C70000014024000100240000C02400018024014
:101C800010B58EB000230793089309930A930B9322
:101C90000C930D9300930193029303930493059384
:101CA00006931A484FF02042026002F582724260A9
:101CB00006228260C3600361102242618361C361B6
:101CC000036243624FF480518162C3624FF48041EA
:101CD00001634363836343640F2307930893FF21E6
:101CE00009910A930B9211210C91092400940193FC
:101CF00008230293049205916A4607A902F03EF870
:101D000008B90EB010BD00F0B3FEFAE7880A002053
:101D100008B5FFF75BFF08BDF0B58FB0002409944C
:101D20000A940B940C940D9401943A4B1A6B42F064
:101D300004021A631A6B02F004020192019A0294DF
:101D40001A6B42F020021A631A6B02F02002029210
:101D5000029A03941A6B42F080021A631A6B02F023
:101D600080020392039A04941A6B42F001021A63F0
:101D70001A6B02F001020492049A05941A6B42F065
:101D800010021A631A6B02F010020592059A06946B
:101D90001A6B42F002021A631A6B02F002020692F8
:101DA000069A07941A6B42F008021A631A6B02F043
:101DB00008020792079A08941A6B42F040021A63CD
:101DC0001B6B03F040030893089B134F01224FF451
:101DD000C061384601F08FFC104E22464FF400419E
:101DE000304601F088FC4FF4C063099301250A9541
:101DF0000B950C9409A9384601F084FB4FF400437D
:101E000009930A950B940C9409A9304601F07AFBCA
:101E10000FB0F0BD00380240001402400004024040
:101E200010B582B0C4B28DF804400223012201A98A
:101E3000024802F0CAF8204602B010BDF80A00209D
:101E400070B50C461646002504E014F8010BFFF7A8
:101E5000E7FF0135B542F8DBF0B270BDF0B583B0F5
:101E600000251FE005EB850303EB83039C00A4B270
:101E700004F1320080B24FF47847019702260096B1
:101E80004FF4EB730246462105F003FA04F14601D4
:101E900089B2019700960B464FF4E172322005F0AB
:101EA000F8F90135042DDDDD03B0F0BD00000000C0
:101EB000F0B585B00446FEF707FB06460F4630A393
:101EC000D3E90023FEF7D4FD00283ED02CA3D3E9AC
:101ED000002330463946FEF779FC00222A4BFEF7F4
:101EE0004BFBFEF703FE0646FFF7AEF80346274D11
:101EF00000221146284601F0C4FA0021284601F0CC
:101F00008DFA4FF478450295214B019310270097E5
:101F100064231A464FF40C71782005F089F91D49A5
:101F20002046FEF741FF024600953B464FF40C71F8
:101F3000782005F011FA00953B46324640F2122116
:101F4000782005F009FA05B0F0BD4FF47845029508
:101F5000114B01931024009464231A4640F212217D
:101F6000782005F065F902950C4B019300946423E9
:101F70001A4640F21221782005F05AF9E3E700BF33
:101F80006666666666660A400000B040700A002019
:101F9000C802010800004040D4020108E002010824
:101FA000D0B582B0204C204600F0FAFF3221204606
:101FB00001F098F8204601F0F1F804461B4B186038
:101FC000FEF760FA14A3D3E90023FEF7FFFB14A386
:101FD000D3E90023FEF7D0FA06460F462046FEF767
:101FE0008BFE02464FF478440094102340F2762191
:101FF000782005F0B1F930463946FEF777FD024604
:102000000094102340F24E21782005F0A5F902B08B
:10201000D0BD00BFAFF300800000000000FEAF4065
:102020006666666666660A40280A0020D80A0020AE
:102030002DE9F0438BB0064B20221A700020054B8F
:102040001860FFF735FF0127B84600F015BC00BF48
:10205000E00A0020DC0A0020B24B9B8E354633415B
:1020600013F0010F00F0FC83331DAE4A02EB430373
:102070009B88AD4A1288934280F0F98306F11002E2
:10208000A84931F81220A84949888A4280F0EF8394
:102090000AA901EB860131F8140C4FF6FF71884252
:1020A00000F065810AA901EB850121F8143C21F8B3
:1020B000122C333B9BB2622B04D8322A02D9952AC8
:1020C00040F261812B1D974A02EB43039B88973BAB
:1020D0009BB2622B08D805F1100332F81330322B73
:1020E00002D9952B40F269812B1D8E4A02EB4303E6
:1020F0009B88FB3B9BB2622B08D805F1100332F89A
:102100001330322B02D9952B40F271812B1D854A59
:1021100002EB43039B88A3F25F139BB2622B08D8A8
:1021200005F1100332F81330322B02D9952B40F20F
:1021300078812B1D7B4A02EB43039B88333B9BB288
:10214000622B08D805F1100332F81330962B02D910
:10215000F92B40F29C812B1D724A02EB43039B88B2
:10216000973B9BB2622B08D805F1100332F813306D
:10217000962B02D9F92B40F2A4812B1D694A02EB60
:1021800043039B88FB3B9BB2622B08D805F11003ED
:1021900032F81330962B02D9F92B40F2AC812B1D6B
:1021A000604A02EB43039B88A3F25F139BB2622B4E
:1021B00008D805F1100332F81330962B02D9F92B09
:1021C00040F2B3812B1D574A02EB43039B88333BFC
:1021D0009BB2622B09D805F1100332F81330FA2BA9
:1021E00003D9B3F5AF7FC0F0D6812B1D4D4A02EB6A
:1021F00043039B88973B9BB2622B09D805F11003E0
:1022000032F81330FA2B03D9B3F5AF7FC0F0DE817B
:102210002B1D444A02EB43039B88FB3B9BB2622B82
:1022200009D805F1100332F81330FA2B03D9B3F5AE
:10223000AF7FC0F0F5812B1D3A4A02EB43039B8828
:10224000A3F25F139BB2622B09D805F1100332F899
:102250001330FA2B03D9B3F5AF7FC0F0FC812B1DEF
:10226000304A02EB43039B88333B9BB2622B0AD874
:1022700005F1100332F81330B3F5AF7F03D9B3F58E
:10228000E17FC0F02A822B1D264A02EB43039B8884
:10229000973B9BB2622B0AD805F1100332F813303A
:1022A000B3F5AF7F03D9B3F5E17FC0F032822B1DC8
:1022B0001C4A02EB43039B88FB3B9BB2622B0AD870
:1022C00005F1100332F81330B3F5AF7F03D9B3F53E
:1022D000E17FC0F040822B1D124A02EB43039B8832
:1022E000A3F291139BB24E2B0AD805F1100332F8DA
:1022F0001330B3F52F7F03D9B3F5487FC0F04A827E
:102300002B1D084A02EB43039B88A3F25F139BB289
:10231000622B0FD805F1100332F81330B3F5AF7FFD
:1023200008D903E014000020900B0020B3F5E17FF2
:10233000C0F04A82092F00F38D824FF6FF7300939D
:1023400040F20D234FF4C8724FF4FA715F2004F08D
:1023500003FD4FF478430293AB4B01931823009392
:10236000F0224FF4FA71642004F062FF7FE20AA9C0
:1023700001EB860121F8143C21F8122C92E6A34BC4
:102380005B68002098472B1DA04A02EB43039B8803
:10239000333B9BB2622B07D805F1100332F81330A0
:1023A000322B01D9952BEAD9974B3122DA550137D7
:1023B00088E6964B5B68002098472B1D934A02EBFA
:1023C00043039B88973B9BB2622B07D805F1100310
:1023D00032F81330322B01D9952BEAD98A4B3222AD
:1023E000DA55013780E6894B5B68002098472B1D42
:1023F000864A02EB43039B88FB3B9BB2622B07D8C8
:1024000005F1100332F81330322B01D9952BEAD99C
:102410007D4B3322DA55013778E67C4B5B68002030
:1024200098472B1D794A02EB43039B88A3F25F1365
:102430009BB2622B07D805F1100332F81330322B10
:1024400001D9952BE9D9DFF8C091484606F004FA86
:10245000FEF74CFB6E4C2060FEF736F868A3D3E91C
:102460000023FDF7D3FEFEF741FB2060FEF72CF8BA
:10247000CDE90001674A1421484606F06DFA20684C
:10248000FFF716FD55E6614B5B68002098472B1D52
:102490005E4A02EB43039B88333B9BB2622B07D817
:1024A00005F1100332F81330962B01D9F92BEAD934
:1024B000554B3422DA5501374DE6544B5B6800200A
:1024C00098472B1D514A02EB43039B88973B9BB2D5
:1024D000622B07D805F1100332F81330962B01D97F
:1024E000F92BEAD9484B3522DA55013745E6474BF7
:1024F0005B68002098472B1D444A02EB43039B88EE
:10250000FB3B9BB2622B07D805F1100332F8133066
:10251000962B01D9F92BEAD93B4B3622DA550137F4
:102520003DE63A4B5B68002098472B1D374A02EB8B
:1025300043039B88A3F25F139BB2622B07D805F17C
:10254000100332F81330962B01D9F92BE9D9DFF8B3
:10255000B890484606F080F9FEF7C8FA2C4C206087
:10256000FDF7B2FF26A3D3E90023FDF74DFEFEF7EA
:10257000BDFA2060FDF7A8FFCDE90001254A14212E
:10258000484606F0E9F92068FFF792FC1AE61F4B6F
:102590005B68002098472B1D1C4A02EB43039B8875
:1025A000333B9BB2622B08D805F1100332F813308D
:1025B000FA2B02D9B3F5AF7FE9D3134B3722DA55A3
:1025C000013712E6114B5B68002098472B1D0F4A1C
:1025D00002EB43039B88973B9BB2622B08D805F123
:1025E000100332F81330FA2B02D9B3F5AF7FE9D3D9
:1025F000054B3822DA5501370AE600BFAFF30080F9
:102600005F07CE1951DA6B3FE00A0020140000206A
:10261000DC0A0020200301088F4B5B6800209847EC
:102620002B1D8D4A02EB43039B88FB3B9BB2622B25
:1026300008D805F1100332F81330FA2B02D9B3F59C
:10264000AF7FE9D3854B3922DA550137F3E5824B69
:102650005B68002098472B1D7F4A02EB43039B8851
:10266000A3F25F139BB2622B0AD805F1100332F874
:102670001330FA2B0DD9B3F5AF7FE8D3334600E022
:102680003346132B07D8754A2021D1540133DBB2CE
:10269000F7E73346F5E7714B20221A704FF4784282
:1026A0000292019318230093F0224FF4FA716420F0
:1026B00004F0BEFD4FF6FF73009340F20D234FF47C
:1026C000C8724FF4FA715F2004F046FB0127B84648
:1026D000C5E5614B5B68002098472B1D5E4A02EB05
:1026E00043039B88333B9BB2622B09D805F110034F
:1026F00032F81330B3F5AF7F02D9B3F5E17FE8D3F9
:10270000564B3022DA550137BDE5534B5B6800204C
:1027100098472B1D504A02EB43039B88973B9BB283
:10272000622B09D805F1100332F81330B3F5AF7FEF
:1027300002D9B3F5E17FE8D3B8F1010F7FF4B7AD6B
:10274000464B2E22DA55013708F10108AFE5424B1E
:102750005B68002098472B1D3F4A02EB43039B8890
:10276000FB3B9BB2622B09D805F1100332F8133002
:10277000B3F5AF7F02D9B3F5E17FE8D3374806F070
:102780006BF8FEF7B3F9FFF793FBA4E5324B5B68F8
:10279000002098472B1D304A02EB43039B88FB3BEC
:1027A0009BB2622B09D805F1100332F81330B3F550
:1027B000AF7F02D9B3F5E17FE8D3FFF7F1FB9FE5E7
:1027C000254B5B68002098472B1D234A02EB4303EF
:1027D0009B88A3F25F139BB2622B09D805F110030B
:1027E00032F81330B3F5AF7F02D9B3F5E17FE7D309
:1027F000013F1A4BDB5D2E2B07D0184B2022DA55F8
:10280000002F7FF497AD012797E54FF00108F4E71B
:10281000124A2021D1540133DBB20127082BF7D90A
:102820004FF4784302930D4B019318230093F02249
:102830004FF4FA71642004F0FBFC4FF6FF73009331
:1028400040F20D234FF4C8724FF4FA715F2004F088
:1028500083FA72E53346E1E714000020E00A002025
:102860004FF6FF720AAB03EB860323F8142C741C9B
:10287000E6B2002E3FF4F0AB4FF478450295714B71
:1028800001931824009464231A464FF4FA7114201B
:1028900004F0CEFC02956C4B0193009464231A461D
:1028A00040F21221142004F0C3FC0295674B0193FF
:1028B000009464231A464FF40C71142004F0B8FC01
:1028C0000295634B0193009464231A4640F24E2113
:1028D000142004F0ADFC009540F20D234FF4C872B3
:1028E0004FF4FA715F2004F0C9FA019500940123B6
:1028F0001A466421084604F04DFC0195009401231A
:1029000002226421C82004F045FC019500940123B3
:10291000032264214FF4967004F03CFC02954D4B69
:102920000193202600962346C82264214FF4C870E4
:1029300004F07EFC0195009401230422C821642048
:1029400004F028FC0195009401230522C8210846C3
:1029500004F020FC0195009401230622C8214FF4C5
:10296000967004F017FC02953B4B019300962346AA
:10297000C82211464FF4C87004F05AFC0195009427
:10298000012307224FF49671642004F003FC0195A3
:102990000094012308224FF49671C82004F0FAFB3A
:1029A00001950094012309224FF49671084604F022
:1029B000F1FB0295294B019300962346C8224FF460
:1029C00096714FF4C87004F033FC01950094012314
:1029D00000224FF4C871642004F0DCFB002601964D
:1029E0000123009323462E224FF4C871C82004F01F
:1029F00045FB02951A4B019300942346C8224FF4DD
:102A0000C8714FF4967004F013FC0295154B0193B6
:102A100000942346C8224FF4C871084604F008FC0D
:102A20000295114B01930094C8231A464FF4347158
:102A30004FF4C87004F0FCFB0C4B5B6830469847C1
:102A400017E700BFE8020108F0020108F8020108D8
:102A500000030108080301080C0301081003010822
:102A600014030108180301081C03010814000020C6
:102A700072B6FEE700B595B03022002108A805F037
:102A800019FF00230393049305930693079301937F
:102A9000204A116C41F080511164126C02F0805296
:102AA0000192019A02931C4B1A6842F480421A6008
:102AB0001B6803F480430293029B012308934FF4A5
:102AC0008033099302220E924FF480030F93042364
:102AD0001093A82111911292139308A800F012FEEE
:102AE00098B90F23039302230493002305934FF413
:102AF000A05306934FF480530793052103A801F0D8
:102B000067F820B915B05DF804FBFFF7B1FFFFF7D8
:102B1000AFFF00BF003802400070004008B500F071
:102B200039F9FFF7A7FFFFF7F7F8FFF7A9F800F06B
:102B30008DF8FEF7F5FFFEF787FF03F063FF4FF612
:102B4000FF7003F045FFFFF789F9024B1B689847B8
:102B5000FFF76EFA1400002082B0002100910B4BA9
:102B60005A6C42F480425A645A6C02F480420092D9
:102B7000009A01911A6C42F080521A641B6C03F0A7
:102B800080530193019B02B0704700BF00380240A0
:102B9000FEE7FEE7FEE7FEE7FEE770477047704797
:102BA00008B500F011F908BD0120704708B505F01F
:102BB00057FE162303604FF0FF3008BD08B54FF0F5
:102BC000FF31FFF7F3FFFEE770B50C461646002510
:102BD00006E0AFF30080214601F8010B01350C46F9
:102BE000B542F6DB304670BD4FF0FF3070474FF412
:102BF00000534B6000207047012070470020704751
:102C000010B503460C4A0D490D48006840B10C4808
:102C100000680344521A934206D8094A136010BD53
:102C20000748084C0460F2E705F01AFE0C23036025
:102C30004FF0FF30F3E700BF000002200004000067
:102C4000F40A0020E80B00207047000008B50A488D
:102C50000A4B03604FF4E133436000238360C36099
:102C600003610C2242618361C36101F07FF900B905
:102C700008BDFFF7FDFEFBE7F80A00200010014049
:102C800000B589B00023039304930593069307933B
:102C9000026803F1804303F588339A4202D009B0F9
:102CA0005DF804FB0021019103F594335A6C42F066
:102CB00010025A645A6C02F010020192019A0291B9
:102CC0001A6B42F001021A631B6B03F001030293BB
:102CD000029B4FF4C06303930223049303230693E0
:102CE0000723079303A9024800F00CFCD7E700BFB5
:102CF00000000240DFF834D00D480E490E4A002390
:102D000002E0D458C4500433C4188C42F9D30B4A9F
:102D10000B4C002301E013600432A242FBD3FFF707
:102D200093FF05F0A3FDFFF7F9FE704700000220B6
:102D3000000000200C0A0020943901080C0A002031
:102D4000E80B0020FEE7000010B504460E4B187893
:102D50004FF47A73B3FBF0F30C4A1068B0FBF3F056
:102D600000F036FB68B90F2C01D901200AE00022DF
:102D700021464FF0FF3000F0F3FA054B1C600020B5
:102D800000E0012010BD00BF040000200000002072
:102D90000800002008B50B4B1A6842F400721A6054
:102DA0001A6842F480621A601A6842F480721A60EB
:102DB000032000F0C3FA0F20FFF7C6FFFFF7CCFE99
:102DC000002008BD003C0240034A1168034B1B78F9
:102DD0000B441360704700BF3C0B00200400002030
:102DE000014B1868704700BF3C0B002038B5044603
:102DF000FFF7F6FF0546B4F1FF3F02D0044B1B7806
:102E00001C44FFF7EDFF401BA042FAD338BD00BFC2
:102E1000040000204A4B5A6822F440325A605A6833
:102E200041680A435A600268536823F48073536010
:102E300002685368016943EA0123536002685368DA
:102E400023F0407353600268536881680B435360FA
:102E50000268936823F40063936002689368C16812
:102E60000B439360826A374B9A4257D0026893684B
:102E700023F07063936002689368816A0B439360E8
:102E80000268936823F04053936002689368C16AB4
:102E90000B4393600268936823F002039360026817
:102EA0009368017E43EA4103936090F82030002B41
:102EB0003FD00268536843F400635360026853686C
:102EC00023F46043536001684B68426A013A43EA65
:102ED00042334B600268D36A23F47003D362016803
:102EE000CB6AC269013A43EA0253CB620268936833
:102EF00023F4007393600268936890F8301043EAFB
:102F0000412393600268936823F4806393600268AE
:102F10009368416943EA812393607047026893682C
:102F200023F0706393600268936823F040539360CA
:102F3000B0E70268536823F400635360CAE700BF38
:102F4000002301400100000F38B310B50446036CA4
:102F500043B1236C13F0100F0BD00120002384F831
:102F60003C3010BDFEF7A8FD0023636484F83C30BC
:102F7000EFE7236C23F4885323F0020343F00203AA
:102F800023642046FFF746FF00206064236C23F093
:102F9000030343F001032364E0E7012070470000CE
:102FA00082B00023019390F83C30012B00F089801F
:102FB000012380F83C3003689A6812F0010F13D1A6
:102FC0009A6842F001029A60414B1B68414AA2FB99
:102FD00003239B0C03EB4303019302E0019B013BA2
:102FE0000193019B002BF9D10268936813F0010F44
:102FF0005CD0036C23F4E06323F0010343F480739B
:103000000364536813F4806F05D0036C23F44053BA
:1030100043F480530364036C13F4805F1BD0436C50
:1030200023F006034364002380F83C306FF0220352
:103030001360294B5B6813F01F0F27D10368274AE1
:10304000934211D002F58072934207D0244A9342F2
:1030500014D0002033E000234364E4E702F500725B
:10306000526812F01F0FF1D19A6812F0405F2AD116
:103070009A6842F080429A60002020E002F5807257
:10308000526812F0100FEFD0002018E00368134AC6
:10309000934201D0002012E09A6812F0405F14D1F0
:1030A0009A6842F080429A60002008E0036C43F086
:1030B00010030364436C43F001034364002002B037
:1030C00070470220FBE70020F9E70020F7E700BF88
:1030D0000000002083DE1B4300230140002001404C
:1030E0000022014070B504460D4603689A6812F448
:1030F000806F03D09B6813F4807F19D1FFF770FEB7
:10310000064623681A6812F0020F20D1B5F1FF3F7E
:10311000F7D0B5B923681B6813F0020FF1D1236C07
:1031200043F004032364002384F83C30032032E09E
:10313000036C43F020030364002380F83C3001203B
:1031400029E0FFF74DFE801BA842DAD9E2E76FF0D5
:1031500012021A60236C43F40073236423689A6894
:1031600012F0405F16D1207EB0B9DA6A12F4700F07
:1031700003D09B6813F4806F0DD1236C23F480730C
:103180002364236C13F4805F05D1236C43F00103A7
:10319000236400E0002070BD0020FCE70368D86CC9
:1031A0007047000030B482B00023019390F83C30A7
:1031B000012B00F0BB80012380F83C300B68092B09
:1031C00041D90468E2689BB203EB43031E3B4FF016
:1031D000070C0CFA03F322EA0303E3600468E268D5
:1031E0000B8803EB43031E3B8D6805FA03F313437F
:1031F000E3604B68062B3DD80468626B03EB8303E6
:10320000053B4FF01F0C0CFA03F322EA0303636340
:103210000468626B4B6803EB8303053BB1F800C0A5
:103220000CFA03F3134363630268414B9A4251D093
:1032300002683F4B9A4256D0002380F83C30184633
:1032400002B030BC7047046822699BB203EB4303B1
:103250004FF0070C0CFA03F322EA0303236104681E
:1032600022690B8803EB43038D6805FA03F31343CC
:103270002361BEE70C2B16D805682A6B03EB83038A
:10328000233B1F2404FA03F322EA03032B6305689C
:103290002A6B4B6803EB8303233B0C8804FA03F38C
:1032A00013432B63C0E70568EA6A03EB8303413BE2
:1032B0001F2404FA03F322EA0303EB620568EA6AB7
:1032C0004B6803EB8303413B0C8804FA03F313437D
:1032D000EB62A9E70B68122BAAD1164A536843F494
:1032E00080035360A4E70B68103B012BA4D8114A5C
:1032F000536843F4000353600B68102B9CD10E4BB2
:103300001B6802F1467202F52E3202F28332A2FBF2
:1033100003239B0C03EB83035B00019302E0019BFF
:10332000013B0193019B002BF9D185E7022087E740
:10333000002001400023014000000020074AD3681C
:1033400023F4E0631B041B0C000200F4E060034361
:1033500043F0BF6343F40033D360704700ED00E0F7
:1033600000B5194BDB68C3F30223C3F1070CBCF1B2
:10337000040F28BF4FF0040C03F1040EBEF1060F3A
:1033800018D9033B4FF0FF3E0EFA0CFC21EA0C016A
:1033900099400EFA03F322EA0303194300280BDBDA
:1033A0000901C9B200F1604000F5614080F80013E6
:1033B0005DF804FB0023E5E700F00F000901C9B246
:1033C000024B1954F4E700BF00ED00E014ED00E0FB
:1033D0000138B0F1807F0BD24FF0E0235861054AED
:1033E000F02182F823100020986107221A617047AB
:1033F0000120704700ED00E070B110B5044603797C
:1034000033B102232371002020610123237110BDF9
:103410004371FEF7A7FBF4E7012070474379012BC6
:103420002DD010B401234371022202710468226876
:1034300001F0100C03FA0CF31343236089B90268FE
:10344000136803F03C033C2B06D0012303710023D7
:103450004371184610BC7047536843F00103536032
:10346000F3E701680A6802F470123C2303FA0CFCCB
:103470006245EAD14B6843F002034B60E5E7022066
:10348000704710B483B0002401940068019049B9DA
:1034900001990A4408320192019A1360002003B096
:1034A00010BC704701990A4414320192F4E7437941
:1034B000012B25D010B54FF0010E80F805E0022356
:1034C00003710468236802F0100240F6FE7C0CFAD7
:1034D00002FC23EA0C0C0B6849680B43934043EA57
:1034E0000C03236004682368C02101FA02F223EA76
:1034F0000202226080F804E000234371184610BDE8
:103500000220704700230F2B00F2E48070B582B0D8
:1035100060E085685E000324B44025EA0405CC68B9
:10352000B4402C438460456825EA02054C68C4F326
:1035300000129A402A4342605AE0DC08083450F8EE
:10354000246003F0070295000F22AA4026EA020E2B
:103550000A69AA4042EA0E0240F824205CE00722F1
:1035600000E0002202FA0EF22A4302345A4D45F8D6
:1035700024205A4A94686FEA0C0224EA0C054E682B
:1035800016F4801F01D04CEA0405544CA560E46891
:1035900002EA04054E6816F4001F01D04CEA040547
:1035A0004E4CE560646802EA04054E6816F4003F7C
:1035B00001D04CEA0405494C6560246822404D68FE
:1035C00015F4803F01D04CEA0402444C22600133E0
:1035D0000F2B7DD801229A400C6804EA020C32EAD3
:1035E0000404F4D14C6804F00304013C012C90D98C
:1035F0004A6802F00302032A09D0C4685D0003226E
:10360000AA4024EA02048A68AA402243C2604A68A7
:1036100002F00302022A90D004684FEA430E03220C
:1036200002FA0EF224EA02044A6802F0030202FAE5
:103630000EF2224302604A6812F4403FC7D00022D3
:103640000192274A546C44F480445464526C02F44E
:1036500080420192019A9C08A51C1F4A52F82550ED
:1036600003F003024FEA820E0F2202FA0EF225EA5D
:1036700002051C4A90423FF474AF02F5806290420A
:103680001AD002F58062904218D002F58062904212
:1036900016D002F58062904214D002F5806290420A
:1036A00012D002F58062904210D002F58062904202
:1036B0003FF455AF082255E7012253E7022251E7B4
:1036C00003224FE704224DE705224BE7062249E794
:1036D00002B070BD704700BF00380140003C01409F
:1036E00000380240000002400369194201D0012065
:1036F0007047002070470AB18161704709048161F9
:1037000070470000002800F0E08170B582B00446E8
:10371000036813F0010F3BD09F4B9B6803F00C0331
:10372000042B2CD09C4B9B6803F00C03082B21D05E
:103730006368B3F5803F4FD0B3F5A02F52D0964BBE
:103740001A6822F480321A601A6822F480221A6001
:103750006368002B50D0FFF743FB05468E4B1B6878
:1037600013F4003F14D1FFF73BFB401B6428F5D94D
:103770000320B1E1884B5B6813F4800FD8D0864BEF
:103780001B6813F4003F03D06368002B00F09F8197
:10379000236813F0020F54D07F4B9B6813F00C0F7B
:1037A0003ED07D4B9B6803F00C03082B33D0E368BD
:1037B000002B68D0794B01221A60FFF711FB0546F8
:1037C000754B1B6813F0020F54D1FFF709FB401B28
:1037D0000228F5D903207FE16F4A136843F4803350
:1037E0001360B5E76C4B1A6842F480221A601A68BD
:1037F00042F480321A60ABE7FFF7F2FA0546664BF7
:103800001B6813F4003FC3D0FFF7EAFA401B64289B
:10381000F5D9032060E1604B5B6813F4800FC6D1DB
:103820005D4B1B6813F0020F03D0E368012B40F0DF
:103830005081594A136823F0F803216943EAC10310
:103840001360236813F0080F42D063696BB3534BC6
:103850000122C3F8802EFFF7C3FA05464E4B5B6F7B
:1038600013F0020F34D1FFF7BBFA401B0228F5D941
:10387000032031E1484A136823F0F803216943EA41
:10388000C1031360DDE7454B00221A60FFF7A8FA79
:103890000546414B1B6813F0020FD2D0FFF7A0FA88
:1038A000401B0228F5D9032016E13C4B0022C3F847
:1038B000802EFFF795FA0546374B5B6F13F0020F2A
:1038C00006D0FFF78DFA401B0228F5D9032003E14B
:1038D000236813F0040F77D02F4B1B6C13F0805F1D
:1038E00033D1002301932C4B1A6C42F080521A649E
:1038F0001B6C03F080530193019B0125284B1B682F
:1039000013F4807F23D0A368012B34D0052B38D04B
:10391000214B1A6F22F001021A671A6F22F004027B
:103920001A67A368002B3DD0FFF75AFA06461A4BD8
:103930001B6F13F0020F46D1FFF752FA801B41F2C2
:1039400088339842F3D90320C6E00025D6E7144A0D
:10395000136843F480731360FFF742FA0646104B76
:103960001B6813F4807FCED1FFF73AFA801B022840
:10397000F5D90320B0E0084A136F43F00103136741
:10398000CFE7054B1A6F42F004021A671A6F42F034
:1039900001021A67C5E700BF003802400000474235
:1039A00000700040FFF71CFA0646524B1B6F13F0E5
:1039B000020F08D0FFF714FA801B41F288339842B7
:1039C000F3D9032088E0EDB9A369002B00F08380D0
:1039D000484A926802F00C02082A51D0022B17D0F4
:1039E000454B00221A66FFF7FBF90446414B1B6862
:1039F00013F0007F42D0FFF7F3F9001B0228F5D93E
:103A0000032069E03B4A136C23F080531364DBE727
:103A1000394B00221A66FFF7E3F90546354B1B6860
:103A200013F0007F06D0FFF7DBF9401B0228F5D921
:103A3000032051E0E369226A1343626A43EA821376
:103A4000A26A5208013A43EA0243E26A43EA026385
:103A5000284A5360284B01221A66FFF7C1F9044631
:103A6000244B1B6813F0007F06D1FFF7B9F9001B48
:103A70000228F5D903202FE000202DE000202BE0C4
:103A8000012B2BD01B4B5B6803F48001E269914250
:103A900026D103F03F02216A8A4223D1616A47F6A8
:103AA000C0721A40B2EB811F1ED103F44031A26AEA
:103AB0005208013AB1EB024F18D103F07063E26A89
:103AC000B3EB026F14D1002006E001207047012003
:103AD00002E0012000E0002002B070BD0120FBE701
:103AE0000120F9E70120F7E70120F5E70120F3E7DE
:103AF0000120F1E7003802400000474208B5314B91
:103B00009B6803F00C03042B57D0082B57D12D4B87
:103B10005A6802F03F025B6813F4800F2AD0294BE9
:103B20005968C1F3881C4FEA4C11B1EB0C006EEBE5
:103B30000E0E4FEA8E1343EA90638101091A63EB7C
:103B40000E03DB0043EA5173C90011EB0C0C43F187
:103B50000003590200234FEA4C2041EADC51FDF7F3
:103B600093FA184B5B68C3F3014301335B00B0FB6E
:103B7000F3F025E0134B5968C1F3881C4FEA4C1150
:103B8000B1EB0C006EEB0E0E4FEA8E1343EA90631E
:103B90008101091A63EB0E03DB0043EA5173C9008C
:103BA00011EB0C0C43F10003990200234FEA8C2027
:103BB00041EA9C51FDF768FAD3E7034800E0034867
:103BC00008BD00BF0038024000127A000024F40053
:103BD000002800F09B8070B50D4604464F4B1B68D3
:103BE00003F007038B4208D2CBB24C4A1370136820
:103BF00003F007038B4240F08B80236813F0020F21
:103C000017D013F0040F04D0454A936843F4E053EF
:103C10009360236813F0080F04D0414A936843F47B
:103C2000604393603E4A936823F0F003A1680B431E
:103C30009360236813F0010F32D06368012B21D009
:103C40009A1E012A25D9364A126812F0020F61D055
:103C500033498A6822F0030213438B60FFF7C0F8F0
:103C600006462F4B9B6803F00C036268B3EB820F90
:103C700016D0FFF7B5F8801B41F288339842F0D98F
:103C8000032042E0264A126812F4003FE0D10120EE
:103C90003BE0234A126812F0007FD9D1012034E0C2
:103CA0001E4B1B6803F00703AB4207D9EAB21B4B5C
:103CB0001A701B6803F00703AB422DD1236813F081
:103CC000040F06D0164A936823F4E053E1680B43CF
:103CD0009360236813F0080F07D0114A936823F408
:103CE0006043216943EAC1039360FFF707FF0C4B70
:103CF0009B68C3F303130B4AD35CD8400A4B18608C
:103D00000A4B1868FFF720F8002070BD01207047AB
:103D10000120FAE70120F8E70120F6E7003C024025
:103D200000380240240301080000002008000020A1
:103D3000014B1868704700BF0000002008B5FFF76E
:103D4000F7FF044B9B68C3F38223034AD35CD8403C
:103D500008BD00BF003802403403010808B5FFF772
:103D6000E7FF044B9B68C3F34233034AD35CD8405C
:103D700008BD00BF003802403403010840B370B5ED
:103D80000E461546044690F84930E3B1214651F8F5
:103D9000080B00F087F9A2683146206800F0B6F9F8
:103DA000236BA2682946606800F0D8F92268A168F0
:103DB00052F8213043F0010342F82130012384F806
:103DC0004930002070BD80F84830FDF7A1FFDDE7E5
:103DD0000120704738B504460268136923F4405344
:103DE000C1680B431361836802691343426913433B
:103DF000C2691A430168CB6823F4164323F00C030D
:103E00001343CB600268536923F4407381690B4309
:103E100053610368314A934206D002F580629342AF
:103E200002D0FFF78BFF01E0FFF798FFE369B3F5DE
:103E3000004F29D00021031849411B1841F100010E
:103E4000C90041EA5371DB00181863684FEA830226
:103E50004FEA937341F10001FDF716F9204DA5FBE0
:103E600000325109642303FB11031B013233A5FB0C
:103E700003235B0903F0F00202EB011203F00F03CE
:103E8000216813448B6038BD0023021843EB030103
:103E9000121841F10001C90041EA5271D200101814
:103EA00041F10001626892185B41FDF7EDF80C4D9D
:103EB000A5FB00325109642303FB1103DB003233FD
:103EC000A5FB03235B095A0002F4F87202EB01120E
:103ED00003F00703216813448B60D4E7001001400E
:103EE0001F85EB512DE9F84305460F4616469946C6
:103EF000DDF820802C68246837EA04030CBF4FF0FB
:103F0000010C4FF0000CB4452DD1B8F1FF3FF1D0BA
:103F1000B8F1000F05D0FEF763FFA0EB09004045A4
:103F2000E8D92A6802F10C0353E8003F23F4D07368
:103F30000C3242E800310029F3D12A6802F114035F
:103F400053E8003F23F00103143242E80031002916
:103F5000F3D1202385F83D3085F83E30002385F8E5
:103F60003C30032000E00020BDE8F88358B310B5D2
:103F7000044690F83D300BB3242384F83D3022688A
:103F8000D36823F40053D3602046FFF723FF226851
:103F9000136923F4904313612268536923F02A03C1
:103FA00053612268D36843F40053D3600020206437
:103FB000202384F83D3084F83E3010BD80F83C303A
:103FC000FEF75EFED8E7012070472DE9F04182B090
:103FD0001E4690F83D30DBB2202B54D104460D46EE
:103FE0009046002953D0002A53D090F83C30012B42
:103FF00051D0012380F83C3000230364212380F852
:104000003D30FEF7EDFE0746A4F82480A4F8268094
:10401000A368B3F5805F05D04FF00008002384F853
:104020003C3012E0236913B14FF00008F6E7A846D0
:104030000025F3E738F8023B2268C3F30803536016
:10404000E28C92B2013A92B2E284E38C9BB273B1F9
:1040500000963B46002280212046FFF743FFE0B94F
:10406000002DE7D015F8012B23685A60E8E7009689
:104070003B46002240212046FFF734FF78B9202339
:1040800084F83D3000E0022002B0BDE8F08101205C
:10409000FAE70120F8E70220F6E70320F4E703201F
:1040A000F2E7000010B40A6850F8223023F0010350
:1040B00040F822308B68082B24D000244A68224321
:1040C0001343CA6813430A6913434A691343CA690D
:1040D00013430A6A13434A6A13438A6A1343CA6A38
:1040E00013430A6B13438A691343CA6B134309686A
:1040F00050F82140044A22401A4340F82120002071
:1041000010BC70474024D9E78000F0FF00B50132B1
:1041100050F8223003F0404C0B68D1F804E043EA39
:104120000E13D1F808E043EA0E23D1F80CE043EA7D
:104130000E43D1F810E00EF1FF3E43EA0E53D1F8E2
:1041400014E0AEF1020E43EA0E6389690B434CEAB8
:10415000030340F8223000205DF804FBB3F5804FE4
:1041600005D06FF0704340F822300020704730B423
:1041700050F82230094C1C400B684D6843EA051387
:104180008D6843EA05238D692B43C96843EA0143DF
:10419000234340F82230002030BC70470000F0CFAD
:1041A00082B04FF0D843B3F880309BB2ADF8063000
:1041B000BDF8060080B202B070470246012002E05E
:1041C00002FB00F019464B1EDBB20029F8D1704704
:1041D00082B0ADF80600BDF806309BB2ADF80630EF
:1041E000BDF806309BB24FF0D842A2F8803002B042
:1041F000704782B0ADF80600BDF806309BB2ADF84E
:104200000630BDF806309BB24FF0D842A2F87E309F
:1042100002B0704708B51120FFF7EBFF782003F0DC
:104220007AFA3620FFF7E5FF0020FFF7D1FF3A20AA
:10423000FFF7DFFF0520FFF7CBFFB220FFF7D9FF25
:104240000C20FFF7C5FF0C20FFF7C2FF0020FFF78F
:10425000BFFF3320FFF7BCFF3320FFF7B9FFB720C4
:10426000FFF7C7FF3520FFF7B3FFBB20FFF7C1FF04
:104270003220FFF7ADFFC020FFF7BBFF0C20FFF798
:10428000A7FFC220FFF7B5FF0120FFF7A1FFC32062
:10429000FFF7AFFF1020FFF79BFFC420FFF7A9FF38
:1042A0002020FFF795FFC620FFF7A3FF0F20FFF7A1
:1042B0008FFFD020FFF79DFFA420FFF789FFA120EB
:1042C000FFF786FFE020FFF794FFD020FFF780FF85
:1042D0000020FFF77DFF0220FFF77AFF0720FFF79E
:1042E00077FF0A20FFF774FF2820FFF771FF3220C5
:1042F000FFF76EFF4420FFF76BFF4220FFF768FFD8
:104300000620FFF765FF0E20FFF762FF1220FFF780
:104310005FFF1420FFF75CFF1720FFF759FFE12034
:10432000FFF767FFD020FFF753FF0020FFF750FF94
:104330000220FFF74DFF0720FFF74AFF0A20FFF793
:1043400047FF2820FFF744FF3120FFF741FF5420AB
:10435000FFF73EFF4720FFF73BFF0E20FFF738FF38
:104360001C20FFF735FF1720FFF732FF1B20FFF758
:104370002FFF1E20FFF72CFF2A20FFF73AFF002017
:10438000FFF726FF0020FFF723FF0020FFF720FFA5
:10439000EF20FFF71DFF2B20FFF72BFF0020FFF77B
:1043A00017FF0020FFF714FF0120FFF711FF3F2048
:1043B000FFF70EFF2920FFF71CFF08BD08B5CF202F
:1043C000FFF717FF0020FFF703FFC120FFF700FFF3
:1043D0003020FFF7FDFEED20FFF70BFF6420FFF715
:1043E000F7FE0320FFF7F4FE1220FFF7F1FE812015
:1043F000FFF7EEFEE820FFF7FCFE8520FFF7E8FE62
:104400001020FFF7E5FE7A20FFF7E2FECB20FFF752
:10441000F0FE3920FFF7DCFE2C20FFF7D9FE00204C
:10442000FFF7D6FE3420FFF7D3FE0220FFF7D0FEC1
:10443000F720FFF7DEFE2020FFF7CAFEEA20FFF795
:10444000D8FE0020FFF7C4FE0020FFF7C1FEC02009
:10445000FFF7CFFE1B20FFF7BBFEC120FFF7C9FE11
:104460000120FFF7B5FEC520FFF7C3FE3020FFF7A0
:10447000AFFE3020FFF7ACFEC720FFF7BAFEB72033
:10448000FFF7A6FE3620FFF7B4FE4820FFF7A0FE98
:104490003A20FFF7AEFE5520FFF79AFEB120FFF756
:1044A000A8FE0020FFF794FE1A20FFF791FEB62029
:1044B000FFF79FFE0A20FFF78BFEA220FFF788FE82
:1044C000F220FFF796FE0020FFF782FE2620FFF77E
:1044D00090FE0120FFF77CFEE020FFF78AFE0F2010
:1044E000FFF776FE2A20FFF773FE2820FFF770FE05
:1044F0000820FFF76DFE0E20FFF76AFE0820FFF789
:1045000067FE5420FFF764FEA920FFF761FE4320F9
:10451000FFF75EFE0A20FFF75BFE0F20FFF758FE55
:104520000020FFF755FE0020FFF752FE0020FFF7A6
:104530004FFE0020FFF74CFEE120FFF75AFE00205F
:10454000FFF746FE1520FFF743FE1720FFF740FE5A
:104550000720FFF73DFE1120FFF73AFE0620FFF788
:1045600037FE2B20FFF734FE5620FFF731FE3C20AC
:10457000FFF72EFE0520FFF72BFE1020FFF728FE89
:104580000F20FFF725FE3F20FFF722FE3F20FFF719
:104590001FFE0F20FFF71CFE2B20FFF72AFE002036
:1045A000FFF716FE0020FFF713FE0120FFF710FEB5
:1045B0003F20FFF70DFE2A20FFF71BFE0020FFF72C
:1045C00007FE0020FFF704FE0020FFF701FEEF20AA
:1045D000FFF7FEFD1120FFF70CFE782003F09BF89B
:1045E0002920FFF706FE08BD08B5ED20FFF701FE04
:1045F0000120FFF7EDFDFE20FFF7EAFDEE20FFF7BB
:10460000F8FDDE20FFF7E4FD2120FFF7E1FDF120BA
:10461000FFF7EFFD0120FFF7DBFDDF20FFF7E9FDEE
:104620001020FFF7D5FDC420FFF7E3FD8F20FFF733
:10463000CFFDC620FFF7DDFD0020FFF7C9FDE2201A
:10464000FFF7C6FDE220FFF7C3FDE220FFF7C0FD44
:10465000BF20FFF7CEFDAA20FFF7BAFDB020FFF77D
:10466000C8FD0D20FFF7B4FD0020FFF7B1FD0D20C0
:10467000FFF7AEFD0020FFF7ABFD1120FFF7A8FD0F
:104680000020FFF7A5FD1920FFF7A2FD0020FFF78E
:104690009FFD2120FFF79CFD0020FFF799FD2D20B5
:1046A000FFF796FD0020FFF793FD3D20FFF790FDFB
:1046B0000020FFF78DFD5D20FFF78AFD0020FFF74A
:1046C00087FD5D20FFF784FD0020FFF781FDB1200D
:1046D000FFF78FFD8020FFF77BFD0020FFF778FDBF
:1046E0008B20FFF775FD0020FFF772FD9620FFF786
:1046F0006FFD0020FFF76CFDB220FFF77AFD002070
:10470000FFF766FD0020FFF763FD0220FFF760FD65
:104710000020FFF75DFD0320FFF75AFD0020FFF7A3
:1047200057FDB320FFF765FD0020FFF751FD002086
:10473000FFF74EFD0020FFF74BFD0020FFF748FD7F
:104740000020FFF745FD0020FFF742FD0020FFF7A6
:104750003FFD0020FFF73CFD0020FFF739FD002062
:10476000FFF736FD0020FFF733FD0020FFF730FD97
:104770000020FFF72DFD0020FFF72AFD0020FFF7A6
:1047800027FD0020FFF724FD0020FFF721FD00207A
:10479000FFF71EFD0020FFF71BFD0020FFF718FDAF
:1047A0000020FFF715FD0020FFF712FD0020FFF7A6
:1047B0000FFD0020FFF70CFDB420FFF71AFD8B2042
:1047C000FFF706FD0020FFF703FD9620FFF700FD31
:1047D0000020FFF7FDFCA120FFF7FAFC0020FFF707
:1047E000F7FCB520FFF705FD0220FFF7F1FC0020E4
:1047F000FFF7EEFC0320FFF7EBFC0020FFF7E8FCDF
:104800000420FFF7E5FC0020FFF7E2FCB620FFF7ED
:10481000F0FC0020FFF7DCFC0020FFF7D9FCB720FC
:10482000FFF7E7FC0020FFF7D3FC0020FFF7D0FCE8
:104830003F20FFF7CDFC0020FFF7CAFC5E20FFF70A
:10484000C7FC0020FFF7C4FC6420FFF7C1FC002078
:10485000FFF7BEFC8C20FFF7BBFC0020FFF7B8FC85
:10486000AC20FFF7B5FC0020FFF7B2FCDC20FFF71F
:10487000AFFC0020FFF7ACFC7020FFF7A9FC002084
:10488000FFF7A6FC9020FFF7A3FC0020FFF7A0FC99
:10489000EB20FFF79DFC0020FFF79AFCDC20FFF7E0
:1048A00097FC0020FFF794FCB820FFF7A2FC002043
:1048B000FFF78EFC0020FFF78BFC0020FFF788FC41
:1048C0000020FFF785FC0020FFF782FC0020FFF7A7
:1048D0007FFC0020FFF77CFC0020FFF779FCBA206A
:1048E000FFF787FC2420FFF773FC0020FFF770FC24
:1048F0000020FFF76DFC0020FFF76AFCC120FFF7E6
:1049000078FC2020FFF764FC0020FFF761FC5420B6
:10491000FFF75EFC0020FFF75BFCFF20FFF758FC71
:104920000020FFF755FCC220FFF763FC0A20FFF7C9
:104930004FFC0020FFF74CFC0420FFF749FC00204F
:10494000FFF746FCC320FFF754FC3C20FFF740FC78
:104950000020FFF73DFC3A20FFF73AFC0020FFF76C
:1049600037FC3920FFF734FC0020FFF731FC3720FB
:10497000FFF72EFC0020FFF72BFC3C20FFF728FC64
:104980000020FFF725FC3620FFF722FC0020FFF770
:104990001FFC3220FFF71CFC0020FFF719FC2F2022
:1049A000FFF716FC0020FFF713FC2C20FFF710FC8C
:1049B0000020FFF70DFC2920FFF70AFC0020FFF77D
:1049C00007FC2620FFF704FC0020FFF701FC242051
:1049D000FFF7FEFB0020FFF7FBFB2420FFF7F8FBAF
:1049E0000020FFF7F5FB2320FFF7F2FB0020FFF785
:1049F000EFFB3C20FFF7ECFB0020FFF7E9FB362044
:104A0000FFF7E6FB0020FFF7E3FB3220FFF7E0FBB8
:104A10000020FFF7DDFB2F20FFF7DAFB0020FFF778
:104A2000D7FB2C20FFF7D4FB0020FFF7D1FB292078
:104A3000FFF7CEFB0020FFF7CBFB2620FFF7C8FBDC
:104A40000020FFF7C5FB2420FFF7C2FB0020FFF783
:104A5000BFFB2420FFF7BCFB0020FFF7B9FB23209E
:104A6000FFF7B6FB0020FFF7B3FBC420FFF7C1FB45
:104A70006220FFF7ADFB0020FFF7AAFB0520FFF740
:104A8000A7FB0020FFF7A4FB8420FFF7A1FB002079
:104A9000FFF79EFBF020FFF79BFB0020FFF798FB42
:104AA0001820FFF795FB0020FFF792FBA420FFF7EB
:104AB0008FFB0020FFF78CFB1820FFF789FB0020FD
:104AC000FFF786FB5020FFF783FB0020FFF780FBFA
:104AD0000C20FFF77DFB0020FFF77AFB1720FFF784
:104AE00077FB0020FFF774FB9520FFF771FB002098
:104AF000FFF76EFBF320FFF76BFB0020FFF768FB6F
:104B0000E620FFF765FB0020FFF762FBC520FFF7FB
:104B100070FB3220FFF75CFB0020FFF759FB4420BD
:104B2000FFF756FB0020FFF753FB6520FFF750FB14
:104B30000020FFF74DFB7620FFF74AFB0020FFF730
:104B400047FB8820FFF744FB0020FFF741FBC6200E
:104B5000FFF74FFB2020FFF73BFB0020FFF738FB60
:104B60001720FFF735FB0020FFF732FB0120FFF78E
:104B70002FFB0020FFF72CFBC720FFF73AFB00209C
:104B8000FFF726FB0020FFF723FB0020FFF720FBA9
:104B90000020FFF71DFBC820FFF72BFB0020FFF7CD
:104BA00017FB0020FFF714FB0020FFF711FB00208C
:104BB000FFF70EFBC920FFF71CFB0020FFF708FBE7
:104BC0000020FFF705FB0020FFF702FB0020FFF7A6
:104BD000FFFA0020FFF7FCFA0020FFF7F9FA0020A7
:104BE000FFF7F6FA0020FFF7F3FA0020FFF7F0FADC
:104BF0000020FFF7EDFA0020FFF7EAFA0020FFF7A8
:104C0000E7FA0020FFF7E4FA0020FFF7E1FA0020BE
:104C1000FFF7DEFA0020FFF7DBFAE020FFF7E9FA02
:104C20001620FFF7D5FA0020FFF7D2FA1C20FFF775
:104C3000CFFA0020FFF7CCFA2120FFF7C9FA0020B5
:104C4000FFF7C6FA3620FFF7C3FA0020FFF7C0FAD5
:104C50004620FFF7BDFA0020FFF7BAFA5220FFF70F
:104C6000B7FA0020FFF7B4FA6420FFF7B1FA00208A
:104C7000FFF7AEFA7A20FFF7ABFA0020FFF7A8FAA9
:104C80008B20FFF7A5FA0020FFF7A2FA9920FFF783
:104C90009FFA0020FFF79CFAA820FFF799FA00205E
:104CA000FFF796FAB920FFF793FA0020FFF790FA82
:104CB000C420FFF78DFA0020FFF78AFACA20FFF719
:104CC00087FA0020FFF784FAD220FFF781FA00204C
:104CD000FFF77EFAD920FFF77BFA0020FFF778FA7A
:104CE000E020FFF775FA0020FFF772FAF320FFF7D4
:104CF0006FFA0020FFF76CFAE120FFF77AFA16202E
:104D0000FFF766FA0020FFF763FA1C20FFF760FA4E
:104D10000020FFF75DFA2220FFF75AFA0020FFF784
:104D200057FA3620FFF754FA0020FFF751FA4520D2
:104D3000FFF74EFA0020FFF74BFA5220FFF748FA30
:104D40000020FFF745FA6420FFF742FA0020FFF742
:104D50003FFA7A20FFF73CFA0020FFF739FA8B2060
:104D6000FFF736FA0020FFF733FA9920FFF730FA01
:104D70000020FFF72DFAA820FFF72AFA0020FFF7FE
:104D800027FAB920FFF724FA0020FFF721FAC42000
:104D9000FFF71EFA0020FFF71BFACA20FFF718FAE8
:104DA0000020FFF715FAD220FFF712FA0020FFF7D4
:104DB0000FFAD820FFF70CFA0020FFF709FAE020DD
:104DC000FFF706FA0020FFF703FAF320FFF700FAD7
:104DD0000020FFF7FDF9E220FFF70BFA0520FFF7AF
:104DE000F7F90020FFF7F4F90B20FFF7F1F90020A5
:104DF000FFF7EEF91B20FFF7EBF90020FFF7E8F9CA
:104E00003420FFF7E5F90020FFF7E2F94420FFF72F
:104E1000DFF90020FFF7DCF94F20FFF7D9F9002078
:104E2000FFF7D6F96120FFF7D3F90020FFF7D0F99B
:104E30007920FFF7CDF90020FFF7CAF98820FFF7A6
:104E4000C7F90020FFF7C4F99720FFF7C1F9002048
:104E5000FFF7BEF9A620FFF7BBF90020FFF7B8F96E
:104E6000B720FFF7B5F90020FFF7B2F9C220FFF72E
:104E7000AFF90020FFF7ACF9C720FFF7A9F9002030
:104E8000FFF7A6F9D120FFF7A3F90020FFF7A0F95B
:104E9000D620FFF79DF90020FFF79AF9DD20FFF7F4
:104EA00097F90020FFF794F9F320FFF791F900201C
:104EB000FFF78EF9E320FFF79CF90520FFF788F94B
:104EC0000020FFF785F90A20FFF782F90020FFF79D
:104ED0007FF91C20FFF77CF90020FFF779F93320D8
:104EE000FFF776F90020FFF773F94420FFF770F918
:104EF0000020FFF76DF95020FFF76AF90020FFF757
:104F000067F96220FFF764F90020FFF761F9782064
:104F1000FFF75EF90020FFF75BF98820FFF758F9EB
:104F20000020FFF755F99720FFF752F90020FFF70F
:104F30004FF9A620FFF74CF90020FFF749F9B720F9
:104F4000FFF746F90020FFF743F9C220FFF740F9C9
:104F50000020FFF73DF9C720FFF73AF90020FFF7DF
:104F600037F9D120FFF734F90020FFF731F9D520C8
:104F7000FFF72EF90020FFF72BF9DD20FFF728F9C6
:104F80000020FFF725F9F320FFF722F90020FFF7B3
:104F90001FF9E420FFF72DF90120FFF719F9002090
:104FA000FFF716F90120FFF713F90020FFF710F9BA
:104FB0000220FFF70DF90020FFF70AF92A20FFF77A
:104FC00007F90020FFF704F93C20FFF701F9002062
:104FD000FFF7FEF84B20FFF7FBF80020FFF7F8F88B
:104FE0005D20FFF7F5F80020FFF7F2F87420FFF7D7
:104FF000EFF80020FFF7ECF88420FFF7E9F8002035
:10500000FFF7E6F89320FFF7E3F80020FFF7E0F85A
:10501000A220FFF7DDF80020FFF7DAF8B320FFF752
:10502000D7F80020FFF7D4F8BE20FFF7D1F8002012
:10503000FFF7CEF8C420FFF7CBF80020FFF7C8F841
:10504000CD20FFF7C5F80020FFF7C2F8D320FFF707
:10505000BFF80020FFF7BCF8DD20FFF7B9F800200B
:10506000FFF7B6F8F320FFF7B3F80020FFF7B0F82A
:10507000E520FFF7BEF80020FFF7AAF80020FFF7B1
:10508000A7F80020FFF7A4F80020FFF7A1F80220FE
:10509000FFF79EF80020FFF79BF82920FFF798F80C
:1050A0000020FFF795F83C20FFF792F80020FFF76B
:1050B0008FF84B20FFF78CF80020FFF789F85D2070
:1050C000FFF786F80020FFF783F87420FFF780F8D9
:1050D0000020FFF77DF88420FFF77AF80020FFF723
:1050E00077F89320FFF774F80020FFF771F8A220FB
:1050F000FFF76EF80020FFF76BF8B320FFF768F8B2
:105100000020FFF765F8BE20FFF762F80020FFF7E8
:105110005FF8C420FFF75CF80020FFF759F8CD20B6
:10512000FFF756F80020FFF753F8D320FFF750F8A9
:105130000020FFF74DF8DC20FFF74AF80020FFF7CA
:1051400047F8F320FFF744F80020FFF741F8E62086
:10515000FFF74FF81120FFF73BF80020FFF738F872
:105160003420FFF735F80020FFF732F85620FFF71C
:105170002FF80020FFF72CF87620FFF729F8002001
:10518000FFF726F87720FFF723F80020FFF720F835
:105190006620FFF71DF80020FFF71AF88820FFF7B8
:1051A00017F80020FFF714F89920FFF711F80020F6
:1051B000FFF70EF8BB20FFF70BF80020FFF708F809
:1051C0009920FFF705F80020FFF702F86620FEF7A8
:1051D000FFFF0020FEF7FCFF5520FEF7F9FF00203F
:1051E000FEF7F6FF5520FEF7F3FF0020FEF7F0FF75
:1051F0004520FEF7EDFF0020FEF7EAFF4320FEF713
:10520000E7FF0020FEF7E4FF4420FEF7E1FF002067
:10521000FEF7DEFFE720FEF7ECFF3220FEF7D8FFB7
:105220000020FEF7D5FF5520FEF7D2FF0020FEF745
:10523000CFFF7620FEF7CCFF0020FEF7C9FF6620E7
:10524000FEF7C6FF0020FEF7C3FF6720FEF7C0FF92
:105250000020FEF7BDFF6720FEF7BAFF0020FEF733
:10526000B7FF8720FEF7B4FF0020FEF7B1FF9920BB
:10527000FEF7AEFF0020FEF7ABFFBB20FEF7A8FF56
:105280000020FEF7A5FF9920FEF7A2FF0020FEF701
:105290009FFF7720FEF79CFF0020FEF799FF442038
:1052A000FEF796FF0020FEF793FF5620FEF790FFD3
:1052B0000020FEF78DFF2320FEF78AFF0020FEF777
:1052C00087FF3320FEF784FF0020FEF781FF452093
:1052D000FEF77EFF0020FEF77BFFE820FEF789FF48
:1052E0000020FEF775FF0020FEF772FF9920FEF701
:1052F0006FFF0020FEF76CFF8720FEF769FF00209C
:10530000FEF766FF8820FEF763FF0020FEF760FFD0
:105310007720FEF75DFF0020FEF75AFF6620FEF7BC
:1053200057FF0020FEF754FF8820FEF751FF0020B2
:10533000FEF74EFFAA20FEF74BFF0020FEF748FFC6
:10534000BB20FEF745FF0020FEF742FF9920FEF745
:105350003FFF0020FEF73CFF6620FEF739FF0020EC
:10536000FEF736FF5520FEF733FF0020FEF730FF33
:105370005520FEF72DFF0020FEF72AFF4420FEF700
:1053800027FF0020FEF724FF4420FEF721FF002026
:10539000FEF71EFF5520FEF71BFF0020FEF718FF4B
:1053A000E920FEF726FFAA20FEF712FF0020FEF7F5
:1053B0000FFF0020FEF70CFF0020FEF709FF002082
:1053C000FEF717FFAA20FEF703FFCF20FEF711FF1D
:1053D0000020FEF7FDFE0020FEF7FAFE0020FEF79B
:1053E000F7FE0020FEF7F4FE0020FEF7F1FE00209D
:1053F000FEF7EEFE0020FEF7EBFE0020FEF7E8FED3
:105400000020FEF7E5FE0020FEF7E2FE0020FEF79A
:10541000DFFE0020FEF7DCFE0020FEF7D9FE0020B4
:10542000FEF7D6FE0020FEF7D3FE0020FEF7D0FEEA
:105430000020FEF7CDFEF020FEF7DBFE0020FEF799
:10544000C7FE5020FEF7C4FE0020FEF7C1FE00207C
:10545000FEF7BEFE0020FEF7BBFEF320FEF7C9FEFE
:105460000020FEF7B5FEF920FEF7C3FE0620FEF78A
:10547000AFFE1020FEF7ACFE2920FEF7A9FE0020AB
:10548000FEF7A6FE3A20FEF7B4FE5520FEF7A0FE7A
:105490001120FEF7AEFE642002F03DF92920FEF750
:1054A000A8FE3520FEF7A5FE0020FEF791FE512054
:1054B000FEF79FFEFF20FEF78BFE5320FEF799FEBE
:1054C0002C20FEF785FE5520FEF793FE8220FEF786
:1054D0007FFE2C20FEF78DFE08BD08B5E220FEF70A
:1054E00088FE1D20FEF774FE0220FEF771FE0420E8
:1054F000FEF76EFE642002F007F9E020FEF779FE69
:105500000120FEF765FE0A2002F005F9E020FEF713
:1055100070FE0320FEF75CFE0C2002F0FCF8012078
:10552000FEF767FE0A2002F0F6F8E620FEF761FEBD
:105530002F20FEF74DFEFF20FEF74AFEFF20FEF76C
:1055400047FEB020FEF755FE2020FEF741FE00206A
:10555000FEF73EFE0320FEF73BFE40F21F30FEF753
:1055600037FE0120FEF734FE40F2DF10FEF730FE7A
:105570000020FEF72DFEB420FEF73BFE0420FEF7D0
:1055800027FE40F21F40FEF723FE0020FEF720FE1C
:105590002E20FEF71DFE0020FEF71AFE0020FEF76B
:1055A00017FE0020FEF714FE0020FEF711FEB620C5
:1055B000FEF71FFE0220FEF70BFE4FF40370FEF70E
:1055C00007FE0020FEF704FE1720FEF701FE15205F
:1055D000FEF7FEFD0020FEF7FBFD0020FEF7F8FDC4
:1055E000F020FEF706FE0320FEF7F2FD2920FEF76D
:1055F00000FED020FEF7FDFD0020FEF7E9FDBE20F5
:10560000FEF7F7FD0520FEF7E3FDFE20FEF7E0FDC7
:105610000120FEF7DDFD0020FEF7DAFD0020FEF799
:10562000D7FD0020FEF7D4FDB820FEF7E2FD0320F1
:10563000FEF7CEFD0120FEF7CBFDBA20FEF7D9FD27
:105640000120FEF7C5FD08BD4FF0D843A3F87E004A
:10565000A3F88010704708B555214FF47040FFF74C
:10566000F3FFAA214FF20100FFF7EEFF52214FF2A4
:105670000200FFF7E9FF08214FF20300FFF7E4FF04
:1056800001214FF20400FFF7DFFF0D214FF43040FE
:10569000FFF7DAFF0D214BF20100FFF7D5FF0D21D7
:1056A0004BF20200FFF7D0FF34214FF43640FFF7F2
:1056B000CBFF34214BF20160FFF7C6FF34214BF2E0
:1056C0000260FFF7C1FF0D214FF43140FFF7BCFF2F
:1056D0000D214BF20110FFF7B7FF0D214BF2021025
:1056E000FFF7B2FF34214FF43740FFF7ADFF34210D
:1056F0004BF20170FFF7A8FF34214BF20270FFF765
:10570000A3FF00214FF43240FFF79EFF00214BF230
:105710000120FFF799FF00214BF20220FFF794FFD1
:1057200024214FF43840FFF78FFF24214BF601006E
:10573000FFF78AFF24214BF60200FFF785FF0121C6
:105740004FF43F40FFF780FF0F214FF43340FFF746
:105750007BFF0F214BF20130FFF776FF0F214BF259
:105760000230FFF771FF34214FF43940FFF76CFF2F
:1057700034214BF60110FFF767FF34214BF602107E
:10578000FFF762FF08214FF43540FFF75DFF082166
:105790004BF20150FFF758FF08214BF20250FFF780
:1057A00053FF03214FF44240FFF74EFF24214FF4F3
:1057B0003A40FFF749FF24214BF60120FFF744FF51
:1057C00024214BF60220FFF73FFF00214FF43C401D
:1057D000FFF73AFF78214BF60140FFF735FF002134
:1057E0004BF60240FFF730FF00214FF43D40FFF73A
:1057F0002BFF78214BF60150FFF726FF00214BF6D7
:105800000250FFF721FF00214FF43E40FFF71CFF3D
:1058100064214BF60160FFF717FF00214FF4514060
:10582000FFF712FF33214DF20110FFF70DFF0021AA
:105830004DF20210FFF708FF34214DF20310FFF77D
:1058400003FF00214DF20410FFF7FEFE3A214DF256
:105850000510FFF7F9FE00214DF20610FFF7F4FEE8
:105860004A214DF20710FFF7EFFE00214DF208101C
:10587000FFF7EAFE5C214DF20910FFF7E5FE00217B
:105880004DF20A10FFF7E0FE81214DF20B10FFF7F9
:10589000DBFE00214DF20C10FFF7D6FEA6214DF2E3
:1058A0000D10FFF7D1FE00214DF20E10FFF7CCFED8
:1058B000E5214DF20F10FFF7C7FE01214DF2101048
:1058C000FFF7C2FE13214DF21110FFF7BDFE0121BB
:1058D0004DF21210FFF7B8FE54214DF21310FFF7EE
:1058E000B3FE01214DF21410FFF7AEFE82214DF2FE
:1058F0001510FFF7A9FE01214DF21610FFF7A4FEC7
:10590000CA214DF21710FFF79FFE02214DF2181029
:10591000FFF79AFE00214DF21910FFF795FE0221C4
:105920004DF21A10FFF790FE01214DF21B10FFF708
:105930008BFE02214DF21C10FFF786FE34214DF242
:105940001D10FFF781FE02214DF21E10FFF77CFEB5
:1059500067214DF21F10FFF777FE02214DF2201054
:10596000FFF772FE84214DF22110FFF76DFE022138
:105970004DF22210FFF768FEA4214DF22310FFF72D
:1059800063FE02214DF22410FFF75EFEB7214DF2B7
:105990002510FFF759FE02214DF22610FFF754FEA5
:1059A000CF214DF22710FFF74FFE02214DF22810B4
:1059B000FFF74AFEDE214DF22910FFF745FE0221D6
:1059C0004DF22A10FFF740FEF2214DF22B10FFF7A7
:1059D0003BFE02214DF22C10FFF736FEFE214DF268
:1059E0002D10FFF731FE03214DF22E10FFF72CFE94
:1059F00010214DF22F10FFF727FE03214DF230103A
:105A0000FFF722FE33214DF23110FFF71DFE032177
:105A10004DF23210FFF718FE6D214DF23310FFF7F3
:105A200013FE00214FF45240FFF70EFE33214DF2DA
:105A30000120FFF709FE00214DF20220FFF704FECE
:105A400034214DF20320FFF7FFFD00214DF2042029
:105A5000FFF7FAFD3A214DF20520FFF7F5FD002191
:105A60004DF20620FFF7F0FD4A214DF20720FFF727
:105A7000EBFD00214DF20820FFF7E6FD5C214DF221
:105A80000920FFF7E1FD00214DF20A20FFF7DCFDC0
:105A900081214DF20B20FFF7D7FD00214DF20C20A4
:105AA000FFF7D2FDA6214DF20D20FFF7CDFD00211D
:105AB0004DF20E20FFF7C8FDE5214DF20F20FFF754
:105AC000C3FD01214DF21020FFF7BEFD13214DF261
:105AD0001120FFF7B9FD01214DF21220FFF7B4FDAF
:105AE00054214DF21320FFF7AFFD01214DF2142098
:105AF000FFF7AAFD82214DF21520FFF7A5FD012138
:105B00004DF21620FFF7A0FDCA214DF21720FFF736
